{
  "contractName": "LibArbitrumL2",
  "abi": [
    {
      "inputs": [],
      "name": "ARBSYS",
      "outputs": [
        {
          "internalType": "address",
          "name": "",
          "type": "address"
        }
      ],
      "stateMutability": "view",
      "type": "function"
    }
  ],
  "bytecode": "0x60dd61004d600b8282823980515f1a607314610041577f4e487b71000000000000000000000000000000000000000000000000000000005f525f60045260245ffd5b305f52607381538281f3fe73000000000000000000000000000000000000000030146080604052600436106032575f3560e01c8063bf0a12cf146036575b5f80fd5b603c6050565b604051604791906090565b60405180910390f35b606481565b5f73ffffffffffffffffffffffffffffffffffffffff82169050919050565b5f607c826055565b9050919050565b608a816074565b82525050565b5f60208201905060a15f8301846083565b9291505056fea2646970667358221220530f2aae65eb7484fb93185ef14f0dc9a1c96e9c22cd221cb4268d39c911b59d64736f6c63430008150033",
  "immutableReferences": {},
  "source": "// SPDX-License-Identifier: MIT\n// OpenZeppelin Contracts (last updated v4.7.2) (crosschain/arbitrum/LibArbitrumL2.sol)\n\npragma solidity ^0.8.4;\n\nimport {IArbSys as ArbitrumL2_Bridge} from \"../../vendor/arbitrum/IArbSys.sol\";\nimport \"../errors.sol\";\n\n/**\n * @dev Primitives for cross-chain aware contracts for\n * https://arbitrum.io/[Arbitrum].\n *\n * This version should only be used on L2 to process cross-chain messages\n * originating from L1. For the other side, use {LibArbitrumL1}.\n */\nlibrary LibArbitrumL2 {\n    /**\n     * @dev Returns whether the current function call is the result of a\n     * cross-chain message relayed by `arbsys`.\n     */\n    address public constant ARBSYS = 0x0000000000000000000000000000000000000064;\n\n    function isCrossChain(address arbsys) internal view returns (bool) {\n        return ArbitrumL2_Bridge(arbsys).wasMyCallersAddressAliased();\n    }\n\n    /**\n     * @dev Returns the address of the sender that triggered the current\n     * cross-chain message through `arbsys`.\n     *\n     * NOTE: {isCrossChain} should be checked before trying to recover the\n     * sender, as it will revert with `NotCrossChainCall` if the current\n     * function call is not the result of a cross-chain message.\n     */\n    function crossChainSender(address arbsys) internal view returns (address) {\n        if (!isCrossChain(arbsys)) revert NotCrossChainCall();\n\n        return ArbitrumL2_Bridge(arbsys).myCallersAddressWithoutAliasing();\n    }\n}\n",
  "sourcePath": "C:\\Users\\Ildevert Daisy\\Documents\\Playgrounds\\5BLOC\\mkt-project\\contracts\\@openzeppelin\\contracts\\crosschain\\arbitrum\\LibArbitrumL2.sol",
  "compiler": {
    "name": "solc",
    "version": "0.8.21+commit.d9974bed.Emscripten.clang"
  },
  "schemaVersion": "3.4.16",
  "updatedAt": "2024-03-24T15:08:15.819Z",
  "devdoc": {
    "details": "Primitives for cross-chain aware contracts for https://arbitrum.io/[Arbitrum]. This version should only be used on L2 to process cross-chain messages originating from L1. For the other side, use {LibArbitrumL1}.",
    "kind": "dev",
    "methods": {},
    "stateVariables": {
      "ARBSYS": {
        "details": "Returns whether the current function call is the result of a cross-chain message relayed by `arbsys`."
      }
    },
    "version": 1
  },
  "userdoc": {
    "kind": "user",
    "methods": {},
    "version": 1
  }
}