{
  "contractName": "Marketplace",
  "abi": [
    {
      "inputs": [],
      "stateMutability": "nonpayable",
      "type": "constructor"
    },
    {
      "anonymous": false,
      "inputs": [
        {
          "indexed": false,
          "internalType": "address",
          "name": "nftContract",
          "type": "address"
        },
        {
          "indexed": false,
          "internalType": "uint256",
          "name": "tokenId",
          "type": "uint256"
        },
        {
          "indexed": false,
          "internalType": "address",
          "name": "seller",
          "type": "address"
        },
        {
          "indexed": false,
          "internalType": "address",
          "name": "owner",
          "type": "address"
        },
        {
          "indexed": false,
          "internalType": "uint256",
          "name": "price",
          "type": "uint256"
        }
      ],
      "name": "NFTListed",
      "type": "event"
    },
    {
      "anonymous": false,
      "inputs": [
        {
          "indexed": false,
          "internalType": "address",
          "name": "nftContract",
          "type": "address"
        },
        {
          "indexed": false,
          "internalType": "uint256",
          "name": "tokenId",
          "type": "uint256"
        },
        {
          "indexed": false,
          "internalType": "address",
          "name": "seller",
          "type": "address"
        },
        {
          "indexed": false,
          "internalType": "address",
          "name": "owner",
          "type": "address"
        },
        {
          "indexed": false,
          "internalType": "uint256",
          "name": "price",
          "type": "uint256"
        }
      ],
      "name": "NFTSold",
      "type": "event"
    },
    {
      "inputs": [],
      "name": "LISTING_FEE",
      "outputs": [
        {
          "internalType": "uint256",
          "name": "",
          "type": "uint256"
        }
      ],
      "stateMutability": "view",
      "type": "function",
      "constant": true
    },
    {
      "inputs": [
        {
          "internalType": "address",
          "name": "_nftContract",
          "type": "address"
        },
        {
          "internalType": "uint256",
          "name": "_tokenId",
          "type": "uint256"
        },
        {
          "internalType": "string",
          "name": "_name",
          "type": "string"
        },
        {
          "internalType": "string",
          "name": "_tokenURI",
          "type": "string"
        }
      ],
      "name": "listNFT",
      "outputs": [],
      "stateMutability": "payable",
      "type": "function",
      "payable": true
    },
    {
      "inputs": [
        {
          "internalType": "address",
          "name": "_nftContract",
          "type": "address"
        },
        {
          "internalType": "uint256",
          "name": "_tokenId",
          "type": "uint256"
        }
      ],
      "name": "buyNFT",
      "outputs": [],
      "stateMutability": "payable",
      "type": "function",
      "payable": true
    },
    {
      "inputs": [
        {
          "internalType": "address",
          "name": "_nftContract",
          "type": "address"
        },
        {
          "internalType": "uint256",
          "name": "_tokenId",
          "type": "uint256"
        }
      ],
      "name": "resellNFT",
      "outputs": [],
      "stateMutability": "payable",
      "type": "function",
      "payable": true
    },
    {
      "inputs": [],
      "name": "getListingFee",
      "outputs": [
        {
          "internalType": "uint256",
          "name": "",
          "type": "uint256"
        }
      ],
      "stateMutability": "view",
      "type": "function",
      "constant": true
    },
    {
      "inputs": [
        {
          "internalType": "uint256",
          "name": "_tokenId",
          "type": "uint256"
        }
      ],
      "name": "getTokenForId",
      "outputs": [
        {
          "components": [
            {
              "internalType": "address",
              "name": "nftContract",
              "type": "address"
            },
            {
              "internalType": "uint256",
              "name": "tokenId",
              "type": "uint256"
            },
            {
              "internalType": "address payable",
              "name": "seller",
              "type": "address"
            },
            {
              "internalType": "address payable",
              "name": "owner",
              "type": "address"
            },
            {
              "internalType": "string",
              "name": "tokenURI",
              "type": "string"
            },
            {
              "internalType": "string",
              "name": "name",
              "type": "string"
            },
            {
              "internalType": "uint256",
              "name": "price",
              "type": "uint256"
            },
            {
              "internalType": "bool",
              "name": "isListed",
              "type": "bool"
            }
          ],
          "internalType": "struct Marketplace.Token",
          "name": "",
          "type": "tuple"
        }
      ],
      "stateMutability": "view",
      "type": "function",
      "constant": true
    },
    {
      "inputs": [],
      "name": "getMarketPlaceBalance",
      "outputs": [
        {
          "internalType": "uint256",
          "name": "",
          "type": "uint256"
        }
      ],
      "stateMutability": "view",
      "type": "function",
      "constant": true
    },
    {
      "inputs": [],
      "name": "getItemsCount",
      "outputs": [
        {
          "internalType": "uint256",
          "name": "",
          "type": "uint256"
        }
      ],
      "stateMutability": "view",
      "type": "function",
      "constant": true
    },
    {
      "inputs": [],
      "name": "getItemsSold",
      "outputs": [
        {
          "internalType": "uint256",
          "name": "",
          "type": "uint256"
        }
      ],
      "stateMutability": "view",
      "type": "function",
      "constant": true
    }
  ],
  "bytecode": "0x6080604052655af3107a4000600355348015610019575f80fd5b5060015f819055503360045f6101000a81548173ffffffffffffffffffffffffffffffffffffffff021916908373ffffffffffffffffffffffffffffffffffffffff160217905550611aa78061006e5f395ff3fe608060405260043610610085575f3560e01c8063a82ba76f11610058578063a82ba76f14610135578063b4c49d0914610151578063b8fe6abe1461017b578063c4b15141146101a5578063dbcc7575146101cf57610085565b80632444a8a6146100895780632b86ae38146100c5578063512dd020146100ef5780639e1001b014610119575b5f80fd5b348015610094575f80fd5b506100af60048036038101906100aa9190610f54565b6101eb565b6040516100bc9190611145565b60405180910390f35b3480156100d0575f80fd5b506100d9610463565b6040516100e69190611174565b60405180910390f35b3480156100fa575f80fd5b50610103610469565b6040516101109190611174565b60405180910390f35b610133600480360381019061012e91906111b7565b610479565b005b61014f600480360381019061014a91906111b7565b6106f9565b005b34801561015c575f80fd5b50610165610a9e565b6040516101729190611174565b60405180910390f35b348015610186575f80fd5b5061018f610aa5565b60405161019c9190611174565b60405180910390f35b3480156101b0575f80fd5b506101b9610aae565b6040516101c69190611174565b60405180910390f35b6101e960048036038101906101e49190611321565b610abe565b005b6101f3610e8d565b60055f8381526020019081526020015f20604051806101000160405290815f82015f9054906101000a900473ffffffffffffffffffffffffffffffffffffffff1673ffffffffffffffffffffffffffffffffffffffff1673ffffffffffffffffffffffffffffffffffffffff16815260200160018201548152602001600282015f9054906101000a900473ffffffffffffffffffffffffffffffffffffffff1673ffffffffffffffffffffffffffffffffffffffff1673ffffffffffffffffffffffffffffffffffffffff168152602001600382015f9054906101000a900473ffffffffffffffffffffffffffffffffffffffff1673ffffffffffffffffffffffffffffffffffffffff1673ffffffffffffffffffffffffffffffffffffffff168152602001600482018054610328906113ea565b80601f0160208091040260200160405190810160405280929190818152602001828054610354906113ea565b801561039f5780601f106103765761010080835404028352916020019161039f565b820191905f5260205f20905b81548152906001019060200180831161038257829003601f168201915b505050505081526020016005820180546103b8906113ea565b80601f01602080910402602001604051908101604052809291908181526020018280546103e4906113ea565b801561042f5780601f106104065761010080835404028352916020019161042f565b820191905f5260205f20905b81548152906001019060200180831161041257829003601f168201915b5050505050815260200160068201548152602001600782015f9054906101000a900460ff1615151515815250509050919050565b60035481565b5f6104746002610e15565b905090565b60025f54036104bd576040517f08c379a00000000000000000000000000000000000000000000000000000000081526004016104b490611474565b60405180910390fd5b60025f819055505f8273ffffffffffffffffffffffffffffffffffffffff16636352211e836040518263ffffffff1660e01b81526004016104fe9190611174565b602060405180830381865afa158015610519573d5f803e3d5ffd5b505050506040513d601f19601f8201168201806040525081019061053d91906114a6565b90506003543414610583576040517f08c379a000000000000000000000000000000000000000000000000000000000815260040161057a9061151b565b60405180910390fd5b8273ffffffffffffffffffffffffffffffffffffffff166323b872dd8230856040518463ffffffff1660e01b81526004016105c093929190611548565b5f604051808303815f87803b1580156105d7575f80fd5b505af11580156105e9573d5f803e3d5ffd5b505050505f60055f8481526020019081526020015f20905033816002015f6101000a81548173ffffffffffffffffffffffffffffffffffffffff021916908373ffffffffffffffffffffffffffffffffffffffff16021790555030816003015f6101000a81548173ffffffffffffffffffffffffffffffffffffffff021916908373ffffffffffffffffffffffffffffffffffffffff1602179055506001816007015f6101000a81548160ff0219169083151502179055506106ab6001610e21565b7fa0c6c0d02d86fdacecbaa5fdf5894bab204e31a778250474108540733a9b8d19848433306003546040516106e495949392919061157d565b60405180910390a1505060015f819055505050565b60025f540361073d576040517f08c379a000000000000000000000000000000000000000000000000000000000815260040161073490611474565b60405180910390fd5b60025f819055505f8273ffffffffffffffffffffffffffffffffffffffff16636352211e836040518263ffffffff1660e01b815260040161077e9190611174565b602060405180830381865afa158015610799573d5f803e3d5ffd5b505050506040513d601f19601f820116820180604052508101906107bd91906114a6565b90505f60055f8481526020019081526020015f209050806006015434101561081a576040517f08c379a00000000000000000000000000000000000000000000000000000000081526004016108119061163e565b60405180910390fd5b5f339050816002015f9054906101000a900473ffffffffffffffffffffffffffffffffffffffff1673ffffffffffffffffffffffffffffffffffffffff166108fc3490811502906040515f60405180830381858888f19350505050158015610884573d5f803e3d5ffd5b508473ffffffffffffffffffffffffffffffffffffffff166323b872dd843385600101546040518463ffffffff1660e01b81526004016108c693929190611548565b5f604051808303815f87803b1580156108dd575f80fd5b505af11580156108ef573d5f803e3d5ffd5b505050508473ffffffffffffffffffffffffffffffffffffffff1663a22cb4653360016040518363ffffffff1660e01b815260040161092f92919061166b565b5f604051808303815f87803b158015610946575f80fd5b505af1158015610958573d5f803e3d5ffd5b5050505060045f9054906101000a900473ffffffffffffffffffffffffffffffffffffffff1673ffffffffffffffffffffffffffffffffffffffff166108fc60035490811502906040515f60405180830381858888f193505050501580156109c2573d5f803e3d5ffd5b5080826003015f6101000a81548173ffffffffffffffffffffffffffffffffffffffff021916908373ffffffffffffffffffffffffffffffffffffffff1602179055505f826007015f6101000a81548160ff021916908315150217905550610a2a6001610e79565b7f16f1dbd97e6bf646d429ed186cce832f1f7fd9907814293b83181e9970ab7bd2858360010154846002015f9054906101000a900473ffffffffffffffffffffffffffffffffffffffff168434604051610a889594939291906116ed565b60405180910390a150505060015f819055505050565b5f47905090565b5f600354905090565b5f610ab96001610e15565b905090565b60025f5403610b02576040517f08c379a0000000000000000000000000000000000000000000000000000000008152600401610af990611474565b60405180910390fd5b60025f819055505f3411610b4b576040517f08c379a0000000000000000000000000000000000000000000000000000000008152600401610b4290611788565b60405180910390fd5b6003543414610b8f576040517f08c379a0000000000000000000000000000000000000000000000000000000008152600401610b869061151b565b60405180910390fd5b8373ffffffffffffffffffffffffffffffffffffffff166323b872dd3330866040518463ffffffff1660e01b8152600401610bcc93929190611548565b5f604051808303815f87803b158015610be3575f80fd5b505af1158015610bf5573d5f803e3d5ffd5b50505050610c036002610e79565b6040518061010001604052808573ffffffffffffffffffffffffffffffffffffffff1681526020018481526020013373ffffffffffffffffffffffffffffffffffffffff1681526020013073ffffffffffffffffffffffffffffffffffffffff16815260200182815260200183815260200160035481526020016001151581525060055f8581526020019081526020015f205f820151815f015f6101000a81548173ffffffffffffffffffffffffffffffffffffffff021916908373ffffffffffffffffffffffffffffffffffffffff160217905550602082015181600101556040820151816002015f6101000a81548173ffffffffffffffffffffffffffffffffffffffff021916908373ffffffffffffffffffffffffffffffffffffffff1602179055506060820151816003015f6101000a81548173ffffffffffffffffffffffffffffffffffffffff021916908373ffffffffffffffffffffffffffffffffffffffff1602179055506080820151816004019081610d84919061193a565b5060a0820151816005019081610d9a919061193a565b5060c0820151816006015560e0820151816007015f6101000a81548160ff0219169083151502179055509050507fa0c6c0d02d86fdacecbaa5fdf5894bab204e31a778250474108540733a9b8d1984843330600354604051610e0095949392919061157d565b60405180910390a160015f8190555050505050565b5f815f01549050919050565b5f815f015490505f8111610e6a576040517f08c379a0000000000000000000000000000000000000000000000000000000008152600401610e6190611a53565b60405180910390fd5b60018103825f01819055505050565b6001815f015f828254019250508190555050565b6040518061010001604052805f73ffffffffffffffffffffffffffffffffffffffff1681526020015f81526020015f73ffffffffffffffffffffffffffffffffffffffff1681526020015f73ffffffffffffffffffffffffffffffffffffffff16815260200160608152602001606081526020015f81526020015f151581525090565b5f604051905090565b5f80fd5b5f80fd5b5f819050919050565b610f3381610f21565b8114610f3d575f80fd5b50565b5f81359050610f4e81610f2a565b92915050565b5f60208284031215610f6957610f68610f19565b5b5f610f7684828501610f40565b91505092915050565b5f73ffffffffffffffffffffffffffffffffffffffff82169050919050565b5f610fa882610f7f565b9050919050565b610fb881610f9e565b82525050565b610fc781610f21565b82525050565b5f610fd782610f7f565b9050919050565b610fe781610fcd565b82525050565b5f81519050919050565b5f82825260208201905092915050565b5f5b83811015611024578082015181840152602081019050611009565b5f8484015250505050565b5f601f19601f8301169050919050565b5f61104982610fed565b6110538185610ff7565b9350611063818560208601611007565b61106c8161102f565b840191505092915050565b5f8115159050919050565b61108b81611077565b82525050565b5f61010083015f8301516110a75f860182610faf565b5060208301516110ba6020860182610fbe565b5060408301516110cd6040860182610fde565b5060608301516110e06060860182610fde565b50608083015184820360808601526110f8828261103f565b91505060a083015184820360a0860152611112828261103f565b91505060c083015161112760c0860182610fbe565b5060e083015161113a60e0860182611082565b508091505092915050565b5f6020820190508181035f83015261115d8184611091565b905092915050565b61116e81610f21565b82525050565b5f6020820190506111875f830184611165565b92915050565b61119681610f9e565b81146111a0575f80fd5b50565b5f813590506111b18161118d565b92915050565b5f80604083850312156111cd576111cc610f19565b5b5f6111da858286016111a3565b92505060206111eb85828601610f40565b9150509250929050565b5f80fd5b5f80fd5b7f4e487b71000000000000000000000000000000000000000000000000000000005f52604160045260245ffd5b6112338261102f565b810181811067ffffffffffffffff82111715611252576112516111fd565b5b80604052505050565b5f611264610f10565b9050611270828261122a565b919050565b5f67ffffffffffffffff82111561128f5761128e6111fd565b5b6112988261102f565b9050602081019050919050565b828183375f83830152505050565b5f6112c56112c084611275565b61125b565b9050828152602081018484840111156112e1576112e06111f9565b5b6112ec8482856112a5565b509392505050565b5f82601f830112611308576113076111f5565b5b81356113188482602086016112b3565b91505092915050565b5f805f806080858703121561133957611338610f19565b5b5f611346878288016111a3565b945050602061135787828801610f40565b935050604085013567ffffffffffffffff81111561137857611377610f1d565b5b611384878288016112f4565b925050606085013567ffffffffffffffff8111156113a5576113a4610f1d565b5b6113b1878288016112f4565b91505092959194509250565b7f4e487b71000000000000000000000000000000000000000000000000000000005f52602260045260245ffd5b5f600282049050600182168061140157607f821691505b602082108103611414576114136113bd565b5b50919050565b5f82825260208201905092915050565b7f5265656e7472616e637947756172643a207265656e7472616e742063616c6c005f82015250565b5f61145e601f8361141a565b91506114698261142a565b602082019050919050565b5f6020820190508181035f83015261148b81611452565b9050919050565b5f815190506114a08161118d565b92915050565b5f602082840312156114bb576114ba610f19565b5b5f6114c884828501611492565b91505092915050565b7f4e6f7420656e6f75676820657468657220666f72206c697374696e67206665655f82015250565b5f61150560208361141a565b9150611510826114d1565b602082019050919050565b5f6020820190508181035f830152611532816114f9565b9050919050565b61154281610f9e565b82525050565b5f60608201905061155b5f830186611539565b6115686020830185611539565b6115756040830184611165565b949350505050565b5f60a0820190506115905f830188611539565b61159d6020830187611165565b6115aa6040830186611539565b6115b76060830185611539565b6115c46080830184611165565b9695505050505050565b7f4e6f7420656e6f75676820657468657220746f20636f7665722061736b696e675f8201527f2070726963650000000000000000000000000000000000000000000000000000602082015250565b5f61162860268361141a565b9150611633826115ce565b604082019050919050565b5f6020820190508181035f8301526116558161161c565b9050919050565b61166581611077565b82525050565b5f60408201905061167e5f830185611539565b61168b602083018461165c565b9392505050565b5f819050919050565b5f6116b56116b06116ab84610f7f565b611692565b610f7f565b9050919050565b5f6116c68261169b565b9050919050565b5f6116d7826116bc565b9050919050565b6116e7816116cd565b82525050565b5f60a0820190506117005f830188611539565b61170d6020830187611165565b61171a60408301866116de565b61172760608301856116de565b6117346080830184611165565b9695505050505050565b7f5072696365206d757374206265206174206c65617374203120776569000000005f82015250565b5f611772601c8361141a565b915061177d8261173e565b602082019050919050565b5f6020820190508181035f83015261179f81611766565b9050919050565b5f819050815f5260205f209050919050565b5f6020601f8301049050919050565b5f82821b905092915050565b5f600883026118027fffffffffffffffffffffffffffffffffffffffffffffffffffffffffffffffff826117c7565b61180c86836117c7565b95508019841693508086168417925050509392505050565b5f61183e61183961183484610f21565b611692565b610f21565b9050919050565b5f819050919050565b61185783611824565b61186b61186382611845565b8484546117d3565b825550505050565b5f90565b61187f611873565b61188a81848461184e565b505050565b5b818110156118ad576118a25f82611877565b600181019050611890565b5050565b601f8211156118f2576118c3816117a6565b6118cc846117b8565b810160208510156118db578190505b6118ef6118e7856117b8565b83018261188f565b50505b505050565b5f82821c905092915050565b5f6119125f19846008026118f7565b1980831691505092915050565b5f61192a8383611903565b9150826002028217905092915050565b61194382610fed565b67ffffffffffffffff81111561195c5761195b6111fd565b5b61196682546113ea565b6119718282856118b1565b5f60209050601f8311600181146119a2575f8415611990578287015190505b61199a858261191f565b865550611a01565b601f1984166119b0866117a6565b5f5b828110156119d7578489015182556001820191506020850194506020810190506119b2565b868310156119f457848901516119f0601f891682611903565b8355505b6001600288020188555050505b505050505050565b7f436f756e7465723a2064656372656d656e74206f766572666c6f7700000000005f82015250565b5f611a3d601b8361141a565b9150611a4882611a09565b602082019050919050565b5f6020820190508181035f830152611a6a81611a31565b905091905056fea26469706673582212206a19f681f84a208c269a8c235d09b624c9632e042eaaac0e9fbb822f60c110b864736f6c63430008150033",
  "immutableReferences": {},
  "source": "// SPDX-License-Identifier: MIT\r\npragma solidity ^0.8.0;\r\n\r\nimport \"./@openzeppelin/contracts/utils/Counters.sol\";\r\nimport \"./@openzeppelin/contracts/token/ERC721/ERC721.sol\";\r\nimport \"./@openzeppelin/contracts/security/ReentrancyGuard.sol\";\r\n\r\ncontract Marketplace is ReentrancyGuard {\r\n  using Counters for Counters.Counter;\r\n  Counters.Counter private _nftsSold;\r\n  Counters.Counter private _nftCount;\r\n  uint256 public LISTING_FEE = 0.0001 ether;\r\n  address payable private _marketOwner;\r\n  mapping(uint256 => Token) private _idToToken;\r\n\r\n  struct Token {\r\n       address nftContract;\r\n       uint256 tokenId;\r\n       address payable seller;\r\n       address payable owner;\r\n       string tokenURI;\r\n       string name;\r\n       uint256 price;\r\n       bool isListed;\r\n   }\r\n\r\n  event NFTListed(\r\n    address nftContract,\r\n    uint256 tokenId,\r\n    address seller,\r\n    address owner,\r\n    uint256 price\r\n  );\r\n  event NFTSold(\r\n    address nftContract,\r\n    uint256 tokenId,\r\n    address seller,\r\n    address owner,\r\n    uint256 price\r\n  );\r\n\r\n  constructor() {\r\n    _marketOwner = payable(msg.sender);\r\n  }\r\n\r\n\r\n  // List the NFT on the marketplace\r\n  function listNFT(address _nftContract, uint256 _tokenId, string memory _name, string memory _tokenURI) public payable nonReentrant {\r\n    require(msg.value > 0, \"Price must be at least 1 wei\");\r\n    require(msg.value == LISTING_FEE, \"Not enough ether for listing fee\");\r\n\r\n    IERC721(_nftContract).transferFrom(msg.sender, address(this), _tokenId);\r\n    \r\n    _nftCount.increment();\r\n\r\n    _idToToken[_tokenId] = Token(\r\n      _nftContract,\r\n      _tokenId, \r\n      payable(msg.sender),\r\n      payable(address(this)),\r\n      _tokenURI, \r\n      _name, \r\n      LISTING_FEE,\r\n      true\r\n    );\r\n\r\n    emit NFTListed(_nftContract, _tokenId, msg.sender, address(this), LISTING_FEE);\r\n  }\r\n\r\n  // Buy an NFT\r\n  function buyNFT(address _nftContract, uint256 _tokenId) public payable nonReentrant {\r\n    address owner = IERC721(_nftContract).ownerOf(_tokenId);\r\n    Token storage nft = _idToToken[_tokenId];\r\n    require(msg.value >= nft.price, \"Not enough ether to cover asking price\");\r\n\r\n    address payable buyer = payable(msg.sender);\r\n    payable(nft.seller).transfer(msg.value);\r\n \r\n    IERC721(_nftContract).transferFrom(owner, msg.sender, nft.tokenId);\r\n    IERC721(_nftContract).setApprovalForAll(msg.sender, true);\r\n\r\n    _marketOwner.transfer(LISTING_FEE);\r\n    nft.owner = buyer;\r\n    nft.isListed = false;\r\n\r\n    _nftsSold.increment();\r\n    emit NFTSold(_nftContract, nft.tokenId, nft.seller, buyer, msg.value);\r\n  }\r\n\r\n  // Resell an NFT purchased from the marketplace\r\n  function resellNFT(address _nftContract, uint256 _tokenId) public payable nonReentrant {\r\n    address owner = IERC721(_nftContract).ownerOf(_tokenId);\r\n    require(msg.value == LISTING_FEE, \"Not enough ether for listing fee\");\r\n\r\n    // UPDATE\r\n    IERC721(_nftContract).transferFrom(owner, address(this), _tokenId);\r\n\r\n    Token storage nft = _idToToken[_tokenId];\r\n    nft.seller = payable(msg.sender);\r\n    nft.owner = payable(address(this));\r\n    nft.isListed = true;\r\n\r\n    _nftsSold.decrement();\r\n    emit NFTListed(_nftContract, _tokenId, msg.sender, address(this), LISTING_FEE);\r\n  }\r\n\r\n  function getListingFee() public view returns (uint256) {\r\n    return LISTING_FEE;\r\n  }\r\n\r\n  function getTokenForId(uint256 _tokenId) public view returns (Token memory) {\r\n       return _idToToken[_tokenId];\r\n   }\r\n\r\n   function getMarketPlaceBalance() public view returns(uint256) {\r\n       //https://docs.soliditylang.org/en/develop/units-and-global-variables.html#address-related\r\n       return address(this).balance;\r\n   }\r\n\r\n   function getItemsCount() public view returns(uint256) {\r\n       return _nftCount.current();\r\n   }\r\n   function getItemsSold() public view returns(uint256) {\r\n       return _nftsSold.current();\r\n   }\r\n}\r\n",
  "sourcePath": "C:\\Users\\Ildevert Daisy\\Documents\\Playgrounds\\5BLOC\\mkt-project\\contracts\\Marketplace.sol",
  "compiler": {
    "name": "solc",
    "version": "0.8.21+commit.d9974bed.Emscripten.clang"
  },
  "schemaVersion": "3.4.16",
  "updatedAt": "2024-03-24T15:09:40.190Z",
  "networkType": "ethereum",
  "devdoc": {
    "kind": "dev",
    "methods": {},
    "version": 1
  },
  "userdoc": {
    "kind": "user",
    "methods": {},
    "version": 1
  }
}