{
  "contractName": "NFT",
  "abi": [
    {
      "inputs": [
        {
          "internalType": "address",
          "name": "_marketplace",
          "type": "address"
        }
      ],
      "stateMutability": "nonpayable",
      "type": "constructor"
    },
    {
      "anonymous": false,
      "inputs": [
        {
          "indexed": true,
          "internalType": "address",
          "name": "owner",
          "type": "address"
        },
        {
          "indexed": true,
          "internalType": "address",
          "name": "approved",
          "type": "address"
        },
        {
          "indexed": true,
          "internalType": "uint256",
          "name": "tokenId",
          "type": "uint256"
        }
      ],
      "name": "Approval",
      "type": "event"
    },
    {
      "anonymous": false,
      "inputs": [
        {
          "indexed": true,
          "internalType": "address",
          "name": "owner",
          "type": "address"
        },
        {
          "indexed": true,
          "internalType": "address",
          "name": "operator",
          "type": "address"
        },
        {
          "indexed": false,
          "internalType": "bool",
          "name": "approved",
          "type": "bool"
        }
      ],
      "name": "ApprovalForAll",
      "type": "event"
    },
    {
      "anonymous": false,
      "inputs": [
        {
          "indexed": false,
          "internalType": "uint256",
          "name": "",
          "type": "uint256"
        }
      ],
      "name": "NFTMinted",
      "type": "event"
    },
    {
      "anonymous": false,
      "inputs": [
        {
          "indexed": true,
          "internalType": "address",
          "name": "from",
          "type": "address"
        },
        {
          "indexed": true,
          "internalType": "address",
          "name": "to",
          "type": "address"
        },
        {
          "indexed": true,
          "internalType": "uint256",
          "name": "tokenId",
          "type": "uint256"
        }
      ],
      "name": "Transfer",
      "type": "event"
    },
    {
      "inputs": [
        {
          "internalType": "address",
          "name": "to",
          "type": "address"
        },
        {
          "internalType": "uint256",
          "name": "tokenId",
          "type": "uint256"
        }
      ],
      "name": "approve",
      "outputs": [],
      "stateMutability": "nonpayable",
      "type": "function"
    },
    {
      "inputs": [
        {
          "internalType": "address",
          "name": "owner",
          "type": "address"
        }
      ],
      "name": "balanceOf",
      "outputs": [
        {
          "internalType": "uint256",
          "name": "",
          "type": "uint256"
        }
      ],
      "stateMutability": "view",
      "type": "function",
      "constant": true
    },
    {
      "inputs": [
        {
          "internalType": "uint256",
          "name": "tokenId",
          "type": "uint256"
        }
      ],
      "name": "getApproved",
      "outputs": [
        {
          "internalType": "address",
          "name": "",
          "type": "address"
        }
      ],
      "stateMutability": "view",
      "type": "function",
      "constant": true
    },
    {
      "inputs": [
        {
          "internalType": "address",
          "name": "owner",
          "type": "address"
        },
        {
          "internalType": "address",
          "name": "operator",
          "type": "address"
        }
      ],
      "name": "isApprovedForAll",
      "outputs": [
        {
          "internalType": "bool",
          "name": "",
          "type": "bool"
        }
      ],
      "stateMutability": "view",
      "type": "function",
      "constant": true
    },
    {
      "inputs": [],
      "name": "name",
      "outputs": [
        {
          "internalType": "string",
          "name": "",
          "type": "string"
        }
      ],
      "stateMutability": "view",
      "type": "function",
      "constant": true
    },
    {
      "inputs": [
        {
          "internalType": "uint256",
          "name": "tokenId",
          "type": "uint256"
        }
      ],
      "name": "ownerOf",
      "outputs": [
        {
          "internalType": "address",
          "name": "",
          "type": "address"
        }
      ],
      "stateMutability": "view",
      "type": "function",
      "constant": true
    },
    {
      "inputs": [
        {
          "internalType": "address",
          "name": "from",
          "type": "address"
        },
        {
          "internalType": "address",
          "name": "to",
          "type": "address"
        },
        {
          "internalType": "uint256",
          "name": "tokenId",
          "type": "uint256"
        }
      ],
      "name": "safeTransferFrom",
      "outputs": [],
      "stateMutability": "nonpayable",
      "type": "function"
    },
    {
      "inputs": [
        {
          "internalType": "address",
          "name": "from",
          "type": "address"
        },
        {
          "internalType": "address",
          "name": "to",
          "type": "address"
        },
        {
          "internalType": "uint256",
          "name": "tokenId",
          "type": "uint256"
        },
        {
          "internalType": "bytes",
          "name": "data",
          "type": "bytes"
        }
      ],
      "name": "safeTransferFrom",
      "outputs": [],
      "stateMutability": "nonpayable",
      "type": "function"
    },
    {
      "inputs": [
        {
          "internalType": "address",
          "name": "operator",
          "type": "address"
        },
        {
          "internalType": "bool",
          "name": "approved",
          "type": "bool"
        }
      ],
      "name": "setApprovalForAll",
      "outputs": [],
      "stateMutability": "nonpayable",
      "type": "function"
    },
    {
      "inputs": [
        {
          "internalType": "bytes4",
          "name": "interfaceId",
          "type": "bytes4"
        }
      ],
      "name": "supportsInterface",
      "outputs": [
        {
          "internalType": "bool",
          "name": "",
          "type": "bool"
        }
      ],
      "stateMutability": "view",
      "type": "function",
      "constant": true
    },
    {
      "inputs": [],
      "name": "symbol",
      "outputs": [
        {
          "internalType": "string",
          "name": "",
          "type": "string"
        }
      ],
      "stateMutability": "view",
      "type": "function",
      "constant": true
    },
    {
      "inputs": [
        {
          "internalType": "uint256",
          "name": "tokenId",
          "type": "uint256"
        }
      ],
      "name": "tokenURI",
      "outputs": [
        {
          "internalType": "string",
          "name": "",
          "type": "string"
        }
      ],
      "stateMutability": "view",
      "type": "function",
      "constant": true
    },
    {
      "inputs": [
        {
          "internalType": "address",
          "name": "from",
          "type": "address"
        },
        {
          "internalType": "address",
          "name": "to",
          "type": "address"
        },
        {
          "internalType": "uint256",
          "name": "tokenId",
          "type": "uint256"
        }
      ],
      "name": "transferFrom",
      "outputs": [],
      "stateMutability": "nonpayable",
      "type": "function"
    },
    {
      "inputs": [
        {
          "internalType": "string",
          "name": "_tokenURI",
          "type": "string"
        }
      ],
      "name": "mint",
      "outputs": [
        {
          "internalType": "uint256",
          "name": "",
          "type": "uint256"
        }
      ],
      "stateMutability": "nonpayable",
      "type": "function"
    },
    {
      "inputs": [],
      "name": "getCurrentToken",
      "outputs": [
        {
          "internalType": "uint256",
          "name": "",
          "type": "uint256"
        }
      ],
      "stateMutability": "view",
      "type": "function",
      "constant": true
    }
  ],
  "bytecode": "0x608060405234801562000010575f80fd5b5060405162002e8f38038062002e8f833981810160405281019062000036919062000173565b6040518060400160405280600781526020017f4d79546f6b656e000000000000000000000000000000000000000000000000008152506040518060400160405280600481526020017f4d544b4e00000000000000000000000000000000000000000000000000000000815250815f9081620000b2919062000407565b508060019081620000c4919062000407565b5050508060085f6101000a81548173ffffffffffffffffffffffffffffffffffffffff021916908373ffffffffffffffffffffffffffffffffffffffff16021790555050620004eb565b5f80fd5b5f73ffffffffffffffffffffffffffffffffffffffff82169050919050565b5f6200013d8262000112565b9050919050565b6200014f8162000131565b81146200015a575f80fd5b50565b5f815190506200016d8162000144565b92915050565b5f602082840312156200018b576200018a6200010e565b5b5f6200019a848285016200015d565b91505092915050565b5f81519050919050565b7f4e487b71000000000000000000000000000000000000000000000000000000005f52604160045260245ffd5b7f4e487b71000000000000000000000000000000000000000000000000000000005f52602260045260245ffd5b5f60028204905060018216806200021f57607f821691505b602082108103620002355762000234620001da565b5b50919050565b5f819050815f5260205f209050919050565b5f6020601f8301049050919050565b5f82821b905092915050565b5f60088302620002997fffffffffffffffffffffffffffffffffffffffffffffffffffffffffffffffff826200025c565b620002a586836200025c565b95508019841693508086168417925050509392505050565b5f819050919050565b5f819050919050565b5f620002ef620002e9620002e384620002bd565b620002c6565b620002bd565b9050919050565b5f819050919050565b6200030a83620002cf565b620003226200031982620002f6565b84845462000268565b825550505050565b5f90565b620003386200032a565b62000345818484620002ff565b505050565b5b818110156200036c57620003605f826200032e565b6001810190506200034b565b5050565b601f821115620003bb5762000385816200023b565b62000390846200024d565b81016020851015620003a0578190505b620003b8620003af856200024d565b8301826200034a565b50505b505050565b5f82821c905092915050565b5f620003dd5f1984600802620003c0565b1980831691505092915050565b5f620003f78383620003cc565b9150826002028217905092915050565b6200041282620001a3565b67ffffffffffffffff8111156200042e576200042d620001ad565b5b6200043a825462000207565b6200044782828562000370565b5f60209050601f8311600181146200047d575f841562000468578287015190505b620004748582620003ea565b865550620004e3565b601f1984166200048d866200023b565b5f5b82811015620004b6578489015182556001820191506020850194506020810190506200048f565b86831015620004d65784890151620004d2601f891682620003cc565b8355505b6001600288020188555050505b505050505050565b61299680620004f95f395ff3fe608060405234801561000f575f80fd5b50600436106100f3575f3560e01c806370a0823111610095578063c87b56dd11610064578063c87b56dd1461027f578063d85d3d27146102af578063e985e9c5146102df578063ef2d17461461030f576100f3565b806370a08231146101f957806395d89b4114610229578063a22cb46514610247578063b88d4fde14610263576100f3565b8063095ea7b3116100d1578063095ea7b31461017557806323b872dd1461019157806342842e0e146101ad5780636352211e146101c9576100f3565b806301ffc9a7146100f757806306fdde0314610127578063081812fc14610145575b5f80fd5b610111600480360381019061010c91906117bb565b61032d565b60405161011e9190611800565b60405180910390f35b61012f61040e565b60405161013c91906118a3565b60405180910390f35b61015f600480360381019061015a91906118f6565b61049d565b60405161016c9190611960565b60405180910390f35b61018f600480360381019061018a91906119a3565b6104df565b005b6101ab60048036038101906101a691906119e1565b6105f5565b005b6101c760048036038101906101c291906119e1565b610655565b005b6101e360048036038101906101de91906118f6565b610674565b6040516101f09190611960565b60405180910390f35b610213600480360381019061020e9190611a31565b610720565b6040516102209190611a6b565b60405180910390f35b6102316107d4565b60405161023e91906118a3565b60405180910390f35b610261600480360381019061025c9190611aae565b610864565b005b61027d60048036038101906102789190611c18565b61087a565b005b610299600480360381019061029491906118f6565b6108dc565b6040516102a691906118a3565b60405180910390f35b6102c960048036038101906102c49190611d36565b6109e6565b6040516102d69190611a6b565b60405180910390f35b6102f960048036038101906102f49190611d7d565b610a50565b6040516103069190611800565b60405180910390f35b610317610ade565b6040516103249190611a6b565b60405180910390f35b5f7f80ac58cd000000000000000000000000000000000000000000000000000000007bffffffffffffffffffffffffffffffffffffffffffffffffffffffff1916827bffffffffffffffffffffffffffffffffffffffffffffffffffffffff191614806103f757507f5b5e139f000000000000000000000000000000000000000000000000000000007bffffffffffffffffffffffffffffffffffffffffffffffffffffffff1916827bffffffffffffffffffffffffffffffffffffffffffffffffffffffff1916145b80610407575061040682610aee565b5b9050919050565b60605f805461041c90611de8565b80601f016020809104026020016040519081016040528092919081815260200182805461044890611de8565b80156104935780601f1061046a57610100808354040283529160200191610493565b820191905f5260205f20905b81548152906001019060200180831161047657829003601f168201915b5050505050905090565b5f6104a782610b57565b60045f8381526020019081526020015f205f9054906101000a900473ffffffffffffffffffffffffffffffffffffffff169050919050565b5f6104e982610674565b90508073ffffffffffffffffffffffffffffffffffffffff168373ffffffffffffffffffffffffffffffffffffffff1603610559576040517f08c379a000000000000000000000000000000000000000000000000000000000815260040161055090611e88565b60405180910390fd5b8073ffffffffffffffffffffffffffffffffffffffff16610578610ba2565b73ffffffffffffffffffffffffffffffffffffffff1614806105a757506105a6816105a1610ba2565b610a50565b5b6105e6576040517f08c379a00000000000000000000000000000000000000000000000000000000081526004016105dd90611f16565b60405180910390fd5b6105f08383610ba9565b505050565b610606610600610ba2565b82610c5f565b610645576040517f08c379a000000000000000000000000000000000000000000000000000000000815260040161063c90611fa4565b60405180910390fd5b610650838383610cf3565b505050565b61066f83838360405180602001604052805f81525061087a565b505050565b5f8060025f8481526020019081526020015f205f9054906101000a900473ffffffffffffffffffffffffffffffffffffffff1690505f73ffffffffffffffffffffffffffffffffffffffff168173ffffffffffffffffffffffffffffffffffffffff1603610717576040517f08c379a000000000000000000000000000000000000000000000000000000000815260040161070e9061200c565b60405180910390fd5b80915050919050565b5f8073ffffffffffffffffffffffffffffffffffffffff168273ffffffffffffffffffffffffffffffffffffffff160361078f576040517f08c379a00000000000000000000000000000000000000000000000000000000081526004016107869061209a565b60405180910390fd5b60035f8373ffffffffffffffffffffffffffffffffffffffff1673ffffffffffffffffffffffffffffffffffffffff1681526020019081526020015f20549050919050565b6060600180546107e390611de8565b80601f016020809104026020016040519081016040528092919081815260200182805461080f90611de8565b801561085a5780601f106108315761010080835404028352916020019161085a565b820191905f5260205f20905b81548152906001019060200180831161083d57829003601f168201915b5050505050905090565b61087661086f610ba2565b8383610f4e565b5050565b61088b610885610ba2565b83610c5f565b6108ca576040517f08c379a00000000000000000000000000000000000000000000000000000000081526004016108c190611fa4565b60405180910390fd5b6108d6848484846110b5565b50505050565b60606108e782610b57565b5f60065f8481526020019081526020015f20805461090490611de8565b80601f016020809104026020016040519081016040528092919081815260200182805461093090611de8565b801561097b5780601f106109525761010080835404028352916020019161097b565b820191905f5260205f20905b81548152906001019060200180831161095e57829003601f168201915b505050505090505f61098b611111565b90505f81510361099f5781925050506109e1565b5f825111156109d35780826040516020016109bb9291906120f2565b604051602081830303815290604052925050506109e1565b6109dc84611127565b925050505b919050565b5f806109f2600761118c565b90506109fe3382611198565b610a088184611367565b610a3460085f9054906101000a900473ffffffffffffffffffffffffffffffffffffffff166001610864565b610a3e60076113d2565b610a48600761118c565b915050919050565b5f60055f8473ffffffffffffffffffffffffffffffffffffffff1673ffffffffffffffffffffffffffffffffffffffff1681526020019081526020015f205f8373ffffffffffffffffffffffffffffffffffffffff1673ffffffffffffffffffffffffffffffffffffffff1681526020019081526020015f205f9054906101000a900460ff16905092915050565b5f610ae9600761118c565b905090565b5f7f01ffc9a7000000000000000000000000000000000000000000000000000000007bffffffffffffffffffffffffffffffffffffffffffffffffffffffff1916827bffffffffffffffffffffffffffffffffffffffffffffffffffffffff1916149050919050565b610b60816113e6565b610b9f576040517f08c379a0000000000000000000000000000000000000000000000000000000008152600401610b969061200c565b60405180910390fd5b50565b5f33905090565b8160045f8381526020019081526020015f205f6101000a81548173ffffffffffffffffffffffffffffffffffffffff021916908373ffffffffffffffffffffffffffffffffffffffff160217905550808273ffffffffffffffffffffffffffffffffffffffff16610c1983610674565b73ffffffffffffffffffffffffffffffffffffffff167f8c5be1e5ebec7d5bd14f71427d1e84f3dd0314c0f7b2291e5b200ac8c7c3b92560405160405180910390a45050565b5f80610c6a83610674565b90508073ffffffffffffffffffffffffffffffffffffffff168473ffffffffffffffffffffffffffffffffffffffff161480610cac5750610cab8185610a50565b5b80610cea57508373ffffffffffffffffffffffffffffffffffffffff16610cd28461049d565b73ffffffffffffffffffffffffffffffffffffffff16145b91505092915050565b8273ffffffffffffffffffffffffffffffffffffffff16610d1382610674565b73ffffffffffffffffffffffffffffffffffffffff1614610d69576040517f08c379a0000000000000000000000000000000000000000000000000000000008152600401610d6090612185565b60405180910390fd5b5f73ffffffffffffffffffffffffffffffffffffffff168273ffffffffffffffffffffffffffffffffffffffff1603610dd7576040517f08c379a0000000000000000000000000000000000000000000000000000000008152600401610dce90612213565b60405180910390fd5b610de283838361144e565b610dec5f82610ba9565b600160035f8573ffffffffffffffffffffffffffffffffffffffff1673ffffffffffffffffffffffffffffffffffffffff1681526020019081526020015f205f828254610e39919061225e565b92505081905550600160035f8473ffffffffffffffffffffffffffffffffffffffff1673ffffffffffffffffffffffffffffffffffffffff1681526020019081526020015f205f828254610e8d9190612291565b925050819055508160025f8381526020019081526020015f205f6101000a81548173ffffffffffffffffffffffffffffffffffffffff021916908373ffffffffffffffffffffffffffffffffffffffff160217905550808273ffffffffffffffffffffffffffffffffffffffff168473ffffffffffffffffffffffffffffffffffffffff167fddf252ad1be2c89b69c2b068fc378daa952ba7f163c4a11628f55a4df523b3ef60405160405180910390a4610f49838383611453565b505050565b8173ffffffffffffffffffffffffffffffffffffffff168373ffffffffffffffffffffffffffffffffffffffff1603610fbc576040517f08c379a0000000000000000000000000000000000000000000000000000000008152600401610fb39061230e565b60405180910390fd5b8060055f8573ffffffffffffffffffffffffffffffffffffffff1673ffffffffffffffffffffffffffffffffffffffff1681526020019081526020015f205f8473ffffffffffffffffffffffffffffffffffffffff1673ffffffffffffffffffffffffffffffffffffffff1681526020019081526020015f205f6101000a81548160ff0219169083151502179055508173ffffffffffffffffffffffffffffffffffffffff168373ffffffffffffffffffffffffffffffffffffffff167f17307eab39ab6107e8899845ad3d59bd9653f200f220920489ca2b5937696c31836040516110a89190611800565b60405180910390a3505050565b6110c0848484610cf3565b6110cc84848484611458565b61110b576040517f08c379a00000000000000000000000000000000000000000000000000000000081526004016111029061239c565b60405180910390fd5b50505050565b606060405180602001604052805f815250905090565b606061113282610b57565b5f61113b611111565b90505f8151116111595760405180602001604052805f815250611184565b80611163846115da565b6040516020016111749291906120f2565b6040516020818303038152906040525b915050919050565b5f815f01549050919050565b5f73ffffffffffffffffffffffffffffffffffffffff168273ffffffffffffffffffffffffffffffffffffffff1603611206576040517f08c379a00000000000000000000000000000000000000000000000000000000081526004016111fd90612404565b60405180910390fd5b61120f816113e6565b1561124f576040517f08c379a00000000000000000000000000000000000000000000000000000000081526004016112469061246c565b60405180910390fd5b61125a5f838361144e565b600160035f8473ffffffffffffffffffffffffffffffffffffffff1673ffffffffffffffffffffffffffffffffffffffff1681526020019081526020015f205f8282546112a79190612291565b925050819055508160025f8381526020019081526020015f205f6101000a81548173ffffffffffffffffffffffffffffffffffffffff021916908373ffffffffffffffffffffffffffffffffffffffff160217905550808273ffffffffffffffffffffffffffffffffffffffff165f73ffffffffffffffffffffffffffffffffffffffff167fddf252ad1be2c89b69c2b068fc378daa952ba7f163c4a11628f55a4df523b3ef60405160405180910390a46113635f8383611453565b5050565b611370826113e6565b6113af576040517f08c379a00000000000000000000000000000000000000000000000000000000081526004016113a6906124fa565b60405180910390fd5b8060065f8481526020019081526020015f2090816113cd91906126b5565b505050565b6001815f015f828254019250508190555050565b5f8073ffffffffffffffffffffffffffffffffffffffff1660025f8481526020019081526020015f205f9054906101000a900473ffffffffffffffffffffffffffffffffffffffff1673ffffffffffffffffffffffffffffffffffffffff1614159050919050565b505050565b505050565b5f6114788473ffffffffffffffffffffffffffffffffffffffff16611733565b156115cd578373ffffffffffffffffffffffffffffffffffffffff1663150b7a026114a1610ba2565b8786866040518563ffffffff1660e01b81526004016114c394939291906127d6565b6020604051808303815f875af19250505080156114fe57506040513d601f19601f820116820180604052508101906114fb9190612834565b60015b61157d573d805f811461152c576040519150601f19603f3d011682016040523d82523d5f602084013e611531565b606091505b505f815103611575576040517f08c379a000000000000000000000000000000000000000000000000000000000815260040161156c9061239c565b60405180910390fd5b805181602001fd5b63150b7a0260e01b7bffffffffffffffffffffffffffffffffffffffffffffffffffffffff1916817bffffffffffffffffffffffffffffffffffffffffffffffffffffffff1916149150506115d2565b600190505b949350505050565b60605f8203611620576040518060400160405280600181526020017f3000000000000000000000000000000000000000000000000000000000000000815250905061172e565b5f8290505f5b5f821461164f5780806116389061285f565b915050600a8261164891906128d3565b9150611626565b5f8167ffffffffffffffff81111561166a57611669611af4565b5b6040519080825280601f01601f19166020018201604052801561169c5781602001600182028036833780820191505090505b5090505b5f8514611727576001826116b4919061225e565b9150600a856116c39190612903565b60306116cf9190612291565b60f81b8183815181106116e5576116e4612933565b5b60200101907effffffffffffffffffffffffffffffffffffffffffffffffffffffffffffff191690815f1a905350600a8561172091906128d3565b94506116a0565b8093505050505b919050565b5f808273ffffffffffffffffffffffffffffffffffffffff163b119050919050565b5f604051905090565b5f80fd5b5f80fd5b5f7fffffffff0000000000000000000000000000000000000000000000000000000082169050919050565b61179a81611766565b81146117a4575f80fd5b50565b5f813590506117b581611791565b92915050565b5f602082840312156117d0576117cf61175e565b5b5f6117dd848285016117a7565b91505092915050565b5f8115159050919050565b6117fa816117e6565b82525050565b5f6020820190506118135f8301846117f1565b92915050565b5f81519050919050565b5f82825260208201905092915050565b5f5b83811015611850578082015181840152602081019050611835565b5f8484015250505050565b5f601f19601f8301169050919050565b5f61187582611819565b61187f8185611823565b935061188f818560208601611833565b6118988161185b565b840191505092915050565b5f6020820190508181035f8301526118bb818461186b565b905092915050565b5f819050919050565b6118d5816118c3565b81146118df575f80fd5b50565b5f813590506118f0816118cc565b92915050565b5f6020828403121561190b5761190a61175e565b5b5f611918848285016118e2565b91505092915050565b5f73ffffffffffffffffffffffffffffffffffffffff82169050919050565b5f61194a82611921565b9050919050565b61195a81611940565b82525050565b5f6020820190506119735f830184611951565b92915050565b61198281611940565b811461198c575f80fd5b50565b5f8135905061199d81611979565b92915050565b5f80604083850312156119b9576119b861175e565b5b5f6119c68582860161198f565b92505060206119d7858286016118e2565b9150509250929050565b5f805f606084860312156119f8576119f761175e565b5b5f611a058682870161198f565b9350506020611a168682870161198f565b9250506040611a27868287016118e2565b9150509250925092565b5f60208284031215611a4657611a4561175e565b5b5f611a538482850161198f565b91505092915050565b611a65816118c3565b82525050565b5f602082019050611a7e5f830184611a5c565b92915050565b611a8d816117e6565b8114611a97575f80fd5b50565b5f81359050611aa881611a84565b92915050565b5f8060408385031215611ac457611ac361175e565b5b5f611ad18582860161198f565b9250506020611ae285828601611a9a565b9150509250929050565b5f80fd5b5f80fd5b7f4e487b71000000000000000000000000000000000000000000000000000000005f52604160045260245ffd5b611b2a8261185b565b810181811067ffffffffffffffff82111715611b4957611b48611af4565b5b80604052505050565b5f611b5b611755565b9050611b678282611b21565b919050565b5f67ffffffffffffffff821115611b8657611b85611af4565b5b611b8f8261185b565b9050602081019050919050565b828183375f83830152505050565b5f611bbc611bb784611b6c565b611b52565b905082815260208101848484011115611bd857611bd7611af0565b5b611be3848285611b9c565b509392505050565b5f82601f830112611bff57611bfe611aec565b5b8135611c0f848260208601611baa565b91505092915050565b5f805f8060808587031215611c3057611c2f61175e565b5b5f611c3d8782880161198f565b9450506020611c4e8782880161198f565b9350506040611c5f878288016118e2565b925050606085013567ffffffffffffffff811115611c8057611c7f611762565b5b611c8c87828801611beb565b91505092959194509250565b5f67ffffffffffffffff821115611cb257611cb1611af4565b5b611cbb8261185b565b9050602081019050919050565b5f611cda611cd584611c98565b611b52565b905082815260208101848484011115611cf657611cf5611af0565b5b611d01848285611b9c565b509392505050565b5f82601f830112611d1d57611d1c611aec565b5b8135611d2d848260208601611cc8565b91505092915050565b5f60208284031215611d4b57611d4a61175e565b5b5f82013567ffffffffffffffff811115611d6857611d67611762565b5b611d7484828501611d09565b91505092915050565b5f8060408385031215611d9357611d9261175e565b5b5f611da08582860161198f565b9250506020611db18582860161198f565b9150509250929050565b7f4e487b71000000000000000000000000000000000000000000000000000000005f52602260045260245ffd5b5f6002820490506001821680611dff57607f821691505b602082108103611e1257611e11611dbb565b5b50919050565b7f4552433732313a20617070726f76616c20746f2063757272656e74206f776e655f8201527f7200000000000000000000000000000000000000000000000000000000000000602082015250565b5f611e72602183611823565b9150611e7d82611e18565b604082019050919050565b5f6020820190508181035f830152611e9f81611e66565b9050919050565b7f4552433732313a20617070726f76652063616c6c6572206973206e6f7420746f5f8201527f6b656e206f776e6572206e6f7220617070726f76656420666f7220616c6c0000602082015250565b5f611f00603e83611823565b9150611f0b82611ea6565b604082019050919050565b5f6020820190508181035f830152611f2d81611ef4565b9050919050565b7f4552433732313a2063616c6c6572206973206e6f7420746f6b656e206f776e655f8201527f72206e6f7220617070726f766564000000000000000000000000000000000000602082015250565b5f611f8e602e83611823565b9150611f9982611f34565b604082019050919050565b5f6020820190508181035f830152611fbb81611f82565b9050919050565b7f4552433732313a20696e76616c696420746f6b656e20494400000000000000005f82015250565b5f611ff6601883611823565b915061200182611fc2565b602082019050919050565b5f6020820190508181035f83015261202381611fea565b9050919050565b7f4552433732313a2061646472657373207a65726f206973206e6f7420612076615f8201527f6c6964206f776e65720000000000000000000000000000000000000000000000602082015250565b5f612084602983611823565b915061208f8261202a565b604082019050919050565b5f6020820190508181035f8301526120b181612078565b9050919050565b5f81905092915050565b5f6120cc82611819565b6120d681856120b8565b93506120e6818560208601611833565b80840191505092915050565b5f6120fd82856120c2565b915061210982846120c2565b91508190509392505050565b7f4552433732313a207472616e736665722066726f6d20696e636f7272656374205f8201527f6f776e6572000000000000000000000000000000000000000000000000000000602082015250565b5f61216f602583611823565b915061217a82612115565b604082019050919050565b5f6020820190508181035f83015261219c81612163565b9050919050565b7f4552433732313a207472616e7366657220746f20746865207a65726f206164645f8201527f7265737300000000000000000000000000000000000000000000000000000000602082015250565b5f6121fd602483611823565b9150612208826121a3565b604082019050919050565b5f6020820190508181035f83015261222a816121f1565b9050919050565b7f4e487b71000000000000000000000000000000000000000000000000000000005f52601160045260245ffd5b5f612268826118c3565b9150612273836118c3565b925082820390508181111561228b5761228a612231565b5b92915050565b5f61229b826118c3565b91506122a6836118c3565b92508282019050808211156122be576122bd612231565b5b92915050565b7f4552433732313a20617070726f766520746f2063616c6c6572000000000000005f82015250565b5f6122f8601983611823565b9150612303826122c4565b602082019050919050565b5f6020820190508181035f830152612325816122ec565b9050919050565b7f4552433732313a207472616e7366657220746f206e6f6e2045524337323152655f8201527f63656976657220696d706c656d656e7465720000000000000000000000000000602082015250565b5f612386603283611823565b91506123918261232c565b604082019050919050565b5f6020820190508181035f8301526123b38161237a565b9050919050565b7f4552433732313a206d696e7420746f20746865207a65726f20616464726573735f82015250565b5f6123ee602083611823565b91506123f9826123ba565b602082019050919050565b5f6020820190508181035f83015261241b816123e2565b9050919050565b7f4552433732313a20746f6b656e20616c7265616479206d696e746564000000005f82015250565b5f612456601c83611823565b915061246182612422565b602082019050919050565b5f6020820190508181035f8301526124838161244a565b9050919050565b7f45524337323155524953746f726167653a2055524920736574206f66206e6f6e5f8201527f6578697374656e7420746f6b656e000000000000000000000000000000000000602082015250565b5f6124e4602e83611823565b91506124ef8261248a565b604082019050919050565b5f6020820190508181035f830152612511816124d8565b9050919050565b5f819050815f5260205f209050919050565b5f6020601f8301049050919050565b5f82821b905092915050565b5f600883026125747fffffffffffffffffffffffffffffffffffffffffffffffffffffffffffffffff82612539565b61257e8683612539565b95508019841693508086168417925050509392505050565b5f819050919050565b5f6125b96125b46125af846118c3565b612596565b6118c3565b9050919050565b5f819050919050565b6125d28361259f565b6125e66125de826125c0565b848454612545565b825550505050565b5f90565b6125fa6125ee565b6126058184846125c9565b505050565b5b818110156126285761261d5f826125f2565b60018101905061260b565b5050565b601f82111561266d5761263e81612518565b6126478461252a565b81016020851015612656578190505b61266a6126628561252a565b83018261260a565b50505b505050565b5f82821c905092915050565b5f61268d5f1984600802612672565b1980831691505092915050565b5f6126a5838361267e565b9150826002028217905092915050565b6126be82611819565b67ffffffffffffffff8111156126d7576126d6611af4565b5b6126e18254611de8565b6126ec82828561262c565b5f60209050601f83116001811461271d575f841561270b578287015190505b612715858261269a565b86555061277c565b601f19841661272b86612518565b5f5b828110156127525784890151825560018201915060208501945060208101905061272d565b8683101561276f578489015161276b601f89168261267e565b8355505b6001600288020188555050505b505050505050565b5f81519050919050565b5f82825260208201905092915050565b5f6127a882612784565b6127b2818561278e565b93506127c2818560208601611833565b6127cb8161185b565b840191505092915050565b5f6080820190506127e95f830187611951565b6127f66020830186611951565b6128036040830185611a5c565b8181036060830152612815818461279e565b905095945050505050565b5f8151905061282e81611791565b92915050565b5f602082840312156128495761284861175e565b5b5f61285684828501612820565b91505092915050565b5f612869826118c3565b91507fffffffffffffffffffffffffffffffffffffffffffffffffffffffffffffffff820361289b5761289a612231565b5b600182019050919050565b7f4e487b71000000000000000000000000000000000000000000000000000000005f52601260045260245ffd5b5f6128dd826118c3565b91506128e8836118c3565b9250826128f8576128f76128a6565b5b828204905092915050565b5f61290d826118c3565b9150612918836118c3565b925082612928576129276128a6565b5b828206905092915050565b7f4e487b71000000000000000000000000000000000000000000000000000000005f52603260045260245ffdfea26469706673582212206c69a2a9aefbd284b2bf557501e44b4ebdcab4b31690523e7831f8d723ac6bd764736f6c63430008150033",
  "immutableReferences": {},
  "source": "// SPDX-License-Identifier: GPL-3.0\r\n\r\npragma solidity ^0.8.0;\r\n\r\nimport \"./@openzeppelin/contracts/token/ERC721/ERC721.sol\";\r\nimport \"./@openzeppelin/contracts/token/ERC721/extensions/ERC721URIStorage.sol\";\r\nimport \"./@openzeppelin/contracts/utils/Counters.sol\";\r\n\r\ncontract NFT is ERC721URIStorage {\r\n    using Counters for Counters.Counter;\r\n    Counters.Counter private _tokenIds;\r\n    address marketplaceContract;\r\n    event NFTMinted(uint256);\r\n\r\n    constructor(address _marketplace) ERC721(\"MyToken\", \"MTKN\") {\r\n        marketplaceContract = _marketplace;\r\n    }\r\n\r\n    function mint(string memory _tokenURI) public returns (uint256) {\r\n         uint256 newItemId = _tokenIds.current();\r\n        _mint(msg.sender, newItemId);\r\n\r\n        _setTokenURI(newItemId, _tokenURI);\r\n        setApprovalForAll(marketplaceContract, true);\r\n        _tokenIds.increment();\r\n        return _tokenIds.current();\r\n    }\r\n\r\n    function getCurrentToken() public view returns (uint256) {\r\n        return _tokenIds.current();\r\n    }\r\n}\r\n\r\n",
  "sourcePath": "C:\\Users\\Ildevert Daisy\\Documents\\Playgrounds\\5BLOC\\mkt-project\\contracts\\NFT.sol",
  "compiler": {
    "name": "solc",
    "version": "0.8.21+commit.d9974bed.Emscripten.clang"
  },
  "schemaVersion": "3.4.16",
  "updatedAt": "2024-03-24T15:09:40.202Z",
  "networkType": "ethereum",
  "devdoc": {
    "events": {
      "Approval(address,address,uint256)": {
        "details": "Emitted when `owner` enables `approved` to manage the `tokenId` token."
      },
      "ApprovalForAll(address,address,bool)": {
        "details": "Emitted when `owner` enables or disables (`approved`) `operator` to manage all of its assets."
      },
      "Transfer(address,address,uint256)": {
        "details": "Emitted when `tokenId` token is transferred from `from` to `to`."
      }
    },
    "kind": "dev",
    "methods": {
      "approve(address,uint256)": {
        "details": "See {IERC721-approve}."
      },
      "balanceOf(address)": {
        "details": "See {IERC721-balanceOf}."
      },
      "getApproved(uint256)": {
        "details": "See {IERC721-getApproved}."
      },
      "isApprovedForAll(address,address)": {
        "details": "See {IERC721-isApprovedForAll}."
      },
      "name()": {
        "details": "See {IERC721Metadata-name}."
      },
      "ownerOf(uint256)": {
        "details": "See {IERC721-ownerOf}."
      },
      "safeTransferFrom(address,address,uint256)": {
        "details": "See {IERC721-safeTransferFrom}."
      },
      "safeTransferFrom(address,address,uint256,bytes)": {
        "details": "See {IERC721-safeTransferFrom}."
      },
      "setApprovalForAll(address,bool)": {
        "details": "See {IERC721-setApprovalForAll}."
      },
      "supportsInterface(bytes4)": {
        "details": "See {IERC165-supportsInterface}."
      },
      "symbol()": {
        "details": "See {IERC721Metadata-symbol}."
      },
      "tokenURI(uint256)": {
        "details": "See {IERC721Metadata-tokenURI}."
      },
      "transferFrom(address,address,uint256)": {
        "details": "See {IERC721-transferFrom}."
      }
    },
    "version": 1
  },
  "userdoc": {
    "kind": "user",
    "methods": {},
    "version": 1
  }
}